{
  "_format": "hh-sol-artifact-1",
  "contractName": "teloslearn",
  "sourceName": "contracts/teloslearn.sol",
  "abi": [
    {
      "inputs": [],
      "stateMutability": "nonpayable",
      "type": "constructor"
    },
    {
      "inputs": [],
      "name": "admin",
      "outputs": [
        {
          "internalType": "address",
          "name": "",
          "type": "address"
        }
      ],
      "stateMutability": "view",
      "type": "function"
    },
    {
      "inputs": [
        {
          "internalType": "string",
          "name": "title_",
          "type": "string"
        },
        {
          "internalType": "uint8",
          "name": "reward_",
          "type": "uint8"
        },
        {
          "internalType": "uint256",
          "name": "numberOfRewards_",
          "type": "uint256"
        }
      ],
      "name": "createQuest",
      "outputs": [],
      "stateMutability": "nonpayable",
      "type": "function"
    },
    {
      "inputs": [
        {
          "internalType": "uint256",
          "name": "questId",
          "type": "uint256"
        }
      ],
      "name": "joinQuest",
      "outputs": [],
      "stateMutability": "nonpayable",
      "type": "function"
    },
    {
      "inputs": [],
      "name": "nextQuestId",
      "outputs": [
        {
          "internalType": "uint256",
          "name": "",
          "type": "uint256"
        }
      ],
      "stateMutability": "view",
      "type": "function"
    },
    {
      "inputs": [
        {
          "internalType": "address",
          "name": "",
          "type": "address"
        },
        {
          "internalType": "uint256",
          "name": "",
          "type": "uint256"
        }
      ],
      "name": "playerQuestStatuses",
      "outputs": [
        {
          "internalType": "enum teloslearn.playerQuestStatus",
          "name": "",
          "type": "uint8"
        }
      ],
      "stateMutability": "view",
      "type": "function"
    },
    {
      "inputs": [
        {
          "internalType": "uint256",
          "name": "",
          "type": "uint256"
        }
      ],
      "name": "quests",
      "outputs": [
        {
          "internalType": "uint256",
          "name": "questId",
          "type": "uint256"
        },
        {
          "internalType": "uint256",
          "name": "numberOfPlayers",
          "type": "uint256"
        },
        {
          "internalType": "string",
          "name": "title",
          "type": "string"
        },
        {
          "internalType": "uint8",
          "name": "reward",
          "type": "uint8"
        },
        {
          "internalType": "uint256",
          "name": "numberOfRewards",
          "type": "uint256"
        }
      ],
      "stateMutability": "view",
      "type": "function"
    },
    {
      "inputs": [
        {
          "internalType": "uint256",
          "name": "questId",
          "type": "uint256"
        }
      ],
      "name": "submitQuest",
      "outputs": [],
      "stateMutability": "nonpayable",
      "type": "function"
    }
  ],
  "bytecode": "0x608060405234801561001057600080fd5b50336000806101000a81548173ffffffffffffffffffffffffffffffffffffffff021916908373ffffffffffffffffffffffffffffffffffffffff160217905550610fa1806100606000396000f3fe608060405234801561001057600080fd5b506004361061007d5760003560e01c8063ad1c8a241161005b578063ad1c8a24146100ea578063d638c98314610106578063e085f98014610124578063f851a440146101585761007d565b80632d96e8f21461008257806378ff2bda1461009e57806399f7358c146100ba575b600080fd5b61009c600480360381019061009791906109b1565b610176565b005b6100b860048036038101906100b39190610a1d565b6102b7565b005b6100d460048036038101906100cf9190610975565b610507565b6040516100e19190610b62565b60405180910390f35b61010460048036038101906100ff9190610a1d565b610536565b005b61010e610754565b60405161011b9190610bfd565b60405180910390f35b61013e60048036038101906101399190610a1d565b61075a565b60405161014f959493929190610c18565b60405180910390f35b610160610825565b60405161016d9190610b47565b60405180910390f35b60008054906101000a900473ffffffffffffffffffffffffffffffffffffffff1673ffffffffffffffffffffffffffffffffffffffff163373ffffffffffffffffffffffffffffffffffffffff1614610204576040517f08c379a00000000000000000000000000000000000000000000000000000000081526004016101fb90610bdd565b60405180910390fd5b600154600260006001548152602001908152602001600020600001819055508383600260006001548152602001908152602001600020600201919061024a929190610849565b508160026000600154815260200190815260200160002060030160006101000a81548160ff021916908360ff1602179055508060026000600154815260200190815260200160002060040181905550600160008154809291906102ac90610d61565b919050555050505050565b8060006002600083815260200190815260200160002060030160009054906101000a900460ff1660ff161415610322576040517f08c379a000000000000000000000000000000000000000000000000000000000815260040161031990610b9d565b60405180910390fd5b6000600281111561035c577f4e487b7100000000000000000000000000000000000000000000000000000000600052602160045260246000fd5b600360003373ffffffffffffffffffffffffffffffffffffffff1673ffffffffffffffffffffffffffffffffffffffff168152602001908152602001600020600084815260200190815260200160002060009054906101000a900460ff1660028111156103f2577f4e487b7100000000000000000000000000000000000000000000000000000000600052602160045260246000fd5b14610432576040517f08c379a000000000000000000000000000000000000000000000000000000000815260040161042990610b7d565b60405180910390fd5b6001600360003373ffffffffffffffffffffffffffffffffffffffff1673ffffffffffffffffffffffffffffffffffffffff168152602001908152602001600020600084815260200190815260200160002060006101000a81548160ff021916908360028111156104cc577f4e487b7100000000000000000000000000000000000000000000000000000000600052602160045260246000fd5b021790555060006002600084815260200190815260200160002090508060010160008154809291906104fd90610d61565b9190505550505050565b60036020528160005260406000206020528060005260406000206000915091509054906101000a900460ff1681565b8060006002600083815260200190815260200160002060030160009054906101000a900460ff1660ff1614156105a1576040517f08c379a000000000000000000000000000000000000000000000000000000000815260040161059890610b9d565b60405180910390fd5b600160028111156105db577f4e487b7100000000000000000000000000000000000000000000000000000000600052602160045260246000fd5b600360003373ffffffffffffffffffffffffffffffffffffffff1673ffffffffffffffffffffffffffffffffffffffff168152602001908152602001600020600084815260200190815260200160002060009054906101000a900460ff166002811115610671577f4e487b7100000000000000000000000000000000000000000000000000000000600052602160045260246000fd5b146106b1576040517f08c379a00000000000000000000000000000000000000000000000000000000081526004016106a890610bbd565b60405180910390fd5b6002600360003373ffffffffffffffffffffffffffffffffffffffff1673ffffffffffffffffffffffffffffffffffffffff168152602001908152602001600020600084815260200190815260200160002060006101000a81548160ff0219169083600281111561074b577f4e487b7100000000000000000000000000000000000000000000000000000000600052602160045260246000fd5b02179055505050565b60015481565b600260205280600052604060002060009150905080600001549080600101549080600201805461078990610d2f565b80601f01602080910402602001604051908101604052809291908181526020018280546107b590610d2f565b80156108025780601f106107d757610100808354040283529160200191610802565b820191906000526020600020905b8154815290600101906020018083116107e557829003601f168201915b5050505050908060030160009054906101000a900460ff16908060040154905085565b60008054906101000a900473ffffffffffffffffffffffffffffffffffffffff1681565b82805461085590610d2f565b90600052602060002090601f01602090048101928261087757600085556108be565b82601f1061089057803560ff19168380011785556108be565b828001600101855582156108be579182015b828111156108bd5782358255916020019190600101906108a2565b5b5090506108cb91906108cf565b5090565b5b808211156108e85760008160009055506001016108d0565b5090565b6000813590506108fb81610f26565b92915050565b60008083601f84011261091357600080fd5b8235905067ffffffffffffffff81111561092c57600080fd5b60208301915083600182028301111561094457600080fd5b9250929050565b60008135905061095a81610f3d565b92915050565b60008135905061096f81610f54565b92915050565b6000806040838503121561098857600080fd5b6000610996858286016108ec565b92505060206109a78582860161094b565b9150509250929050565b600080600080606085870312156109c757600080fd5b600085013567ffffffffffffffff8111156109e157600080fd5b6109ed87828801610901565b94509450506020610a0087828801610960565b9250506040610a118782880161094b565b91505092959194509250565b600060208284031215610a2f57600080fd5b6000610a3d8482850161094b565b91505092915050565b610a4f81610c8e565b82525050565b610a5e81610cea565b82525050565b6000610a6f82610c72565b610a798185610c7d565b9350610a89818560208601610cfc565b610a9281610e37565b840191505092915050565b6000610aaa602e83610c7d565b9150610ab582610e48565b604082019050919050565b6000610acd601483610c7d565b9150610ad882610e97565b602082019050919050565b6000610af0602083610c7d565b9150610afb82610ec0565b602082019050919050565b6000610b13602083610c7d565b9150610b1e82610ee9565b602082019050919050565b610b3281610cd3565b82525050565b610b4181610cdd565b82525050565b6000602082019050610b5c6000830184610a46565b92915050565b6000602082019050610b776000830184610a55565b92915050565b60006020820190508181036000830152610b9681610a9d565b9050919050565b60006020820190508181036000830152610bb681610ac0565b9050919050565b60006020820190508181036000830152610bd681610ae3565b9050919050565b60006020820190508181036000830152610bf681610b06565b9050919050565b6000602082019050610c126000830184610b29565b92915050565b600060a082019050610c2d6000830188610b29565b610c3a6020830187610b29565b8181036040830152610c4c8186610a64565b9050610c5b6060830185610b38565b610c686080830184610b29565b9695505050505050565b600081519050919050565b600082825260208201905092915050565b6000610c9982610cb3565b9050919050565b6000819050610cae82610f12565b919050565b600073ffffffffffffffffffffffffffffffffffffffff82169050919050565b6000819050919050565b600060ff82169050919050565b6000610cf582610ca0565b9050919050565b60005b83811015610d1a578082015181840152602081019050610cff565b83811115610d29576000848401525b50505050565b60006002820490506001821680610d4757607f821691505b60208210811415610d5b57610d5a610e08565b5b50919050565b6000610d6c82610cd3565b91507fffffffffffffffffffffffffffffffffffffffffffffffffffffffffffffffff821415610d9f57610d9e610daa565b5b600182019050919050565b7f4e487b7100000000000000000000000000000000000000000000000000000000600052601160045260246000fd5b7f4e487b7100000000000000000000000000000000000000000000000000000000600052602160045260246000fd5b7f4e487b7100000000000000000000000000000000000000000000000000000000600052602260045260246000fd5b6000601f19601f8301169050919050565b7f506c617965722068617320616c7265616479206a6f696e65642f7375626d697460008201527f7465642074686973207175657374000000000000000000000000000000000000602082015250565b7f517565737420646f6573206e6f74206578697374000000000000000000000000600082015250565b7f506c61796572206d757374206669727374206a6f696e20746865207175657374600082015250565b7f4f6e6c79207468652061646d696e2063616e2063726561746520717565737473600082015250565b60038110610f2357610f22610dd9565b5b50565b610f2f81610c8e565b8114610f3a57600080fd5b50565b610f4681610cd3565b8114610f5157600080fd5b50565b610f5d81610cdd565b8114610f6857600080fd5b5056fea26469706673582212204c5cafc1da70a3d3b3ca22a146577b6d27417f27c1f27834c15457c6cb46868364736f6c63430008040033",
  "linkReferences": {},
  "deployedLinkReferences": {}
}